S01F00004C4D5A31343230334576616C756174696F6E426F6172642E7372656318
S11300000C9457000C947F000C947F000C947F0098
S11300100C947F000C947F000C947F000C947F0060
S11300200C947F000C947F000C947F000C947F0050
S11300300C947F000C947F000C947F000C947F0040
S11300400C947F000C947F000C9492030C947F001A
S11300500C947F000C947F000C947F000C947F0020
S11300600C947F000C947F000C947F000C947F0010
S11300700C947F000C947F000C947F000C947F0000
S11300800C947F000C947F000C943D050C947F002D
S11300900C940D050C947F000C947F000C947F004D
S11300A00C947F000C947F000C947F00E3051124D2
S11300B01FBECFEFCDBFDFE2DEBF11E2A0E0B0E2B2
S11300C0EEEBF5E102C005900D92AE3FB107D9F712
S11300D022E2AEEFB1E201C01D92AE31B207E1F708
S11300E010E0C7E5D0E004C02197FE010E94F307A9
S11300F0C635D107C9F70E9463050C94DD0A0C9438
S113010000000F9300E02FE44FE360E080E00E94E2
S113011040030F910895E0E6F6E088EF81838FEFC6
S11301208093410688E0858380E4858390E8968304
S11301308683A3EFB1E01197F1F700C00000858337
S113014080E2868380E00E94C50280E00E949102E2
S113015082E50E94050280E40E947A0280E00E9407
S11301602C0280E00E94530281E00E94C5020E949A
S1130170810008953F924F925F926F927F928F9287
S11301809F92AF92BF92CF92DF92EF92FF920F9322
S11301901F93CF93DF935C01062F142F722EEC0173
S11301A009900020E9F72197C81BD90B3C2E86E55E
S11301B00E9405026C2F660FC60F6FEF600F6C0F65
S11301C0802F0E94DC0266E0610F812F0E940D03E4
S11301D080E280936506332009F451C0412C0F2E30
S11301E0F0E4EF2EF6E0FF2EF02D00E616E0689422
S11301F0882484F80F2EF0EF5F2EF02DF501C190C6
S11302005F01D12CF0E2CF1AD108C601880F991FE3
S1130210880F991FC80ED91E612CC6010196F601DC
S1130220E050F04E908021E0261540F0E2E0CE0E42
S1130230D11CFC01E050F04EC08102C06C01C0E052
S1130240D7E090FC02C090E001C0952DC0FD02C033
S113025080E001C08FE0892B87210E94EC01F70127
S11302608483F80186828582C6959694D15049F795
S11302706394F3E06F12D1CF43943410BFCFDF9176
S1130280CF911F910F91FF90EF90DF90CF90BF908F
S1130290AF909F908F907F906F905F904F903F9022
S11302A00895CF93DF93EC010E94E60560E1CE014F
S11302B00E94F905DF91CF910895FC01218130E07E
S11302C02F5F3F4F23703078332334F421503109AA
S11302D02C6F3F6F2F5F3F4FFC0121833327F901C0
S11302E0E552FE4D60810E94F90508950E94FC05C7
S11302F00895CF93DF93EC018981813001F130F0CF
S11303008230B1F1833009F44CC063C0CE010E9445
S11303100206BC0180E090E00E94BC0627EF34EEA8
S113032041EE5DE30E944A072BEC31EA42EA51E4D4
S11303300E9420060E948D06688779874AC0CE01F4
S11303400E940206BC0180E090E00E94BC062DE2FF
S113035032EB4DE95DE30E944A072AE939E94DE4AD
S113036051E40E9420060E948D066E837F8331C073
S1130370CE010E940206BC0180E090E00E94BC060F
S11303802DE232EB4DE95DE30E944A072AE939E99F
S11303904DE451E40E9420060E948D066A837B830B
S11303A018C0CE010E940206BC0180E090E00E94C9
S11303B0BC0625E639E142EE5DE30E944A0724E0EB
S11303C036E54EE851E40E9420060E948D066C83B7
S11303D07D83DF91CF91089590E09C013595279519
S11303E02575880F991F8A7A822B282F30E0C9013E
S11303F095958795959587958373220F331F220FC3
S1130400331F2C7C822B82950895EF92FF920F93D9
S11304101F93CF93DF93082FC0E6D6E080E28E834C
S113042080EA0E94EC010F2EF0E4EF2EF6E0FF2E9E
S1130430F02DF701848310E11E831D83802F0E9419
S1130440EC01F70184831E831D83DF91CF911F91FB
S11304500F91FF90EF900895EF92FF920F931F93E7
S1130460CF93DF93082FC0E6D6E080E28E8381EA43
S11304700E94EC010F2EF0E4EF2EF6E0FF2EF02D9B
S1130480F701848310E11E831D83802F0E94EC01F9
S1130490F70184831E831D83DF91CF911F910F91F8
S11304A0FF90EF900895EF92FF920F931F93CF93D5
S11304B0DF93082FC0E6D6E080E28E8382EA0E94B2
S11304C0EC010F2EF0E4EF2EF6E0FF2EF02DF701F5
S11304D0848310E11E831D83802F0E94EC01F701A9
S11304E084831E831D83DF91CF911F910F91FF9011
S11304F0EF900895CF93DF93C0E6D6E090E29E8319
S1130500886A0E94EC018093440680E18E838D8387
S113051083EF91E00197F1F700C00000DF91CF91E4
S11305200895EF92FF920F931F93CF93DF93082FB9
S1130530C0E6D6E080E28E838DEA0E94EC010F2EA5
S1130540F0E4EF2EF6E0FF2EF02DF701848310E1A6
S11305501E831D8383EF91E00197F1F700C0000033
S1130560802F82600E94EC01F70184831E831D8327
S113057083EF91E00197F1F700C00000DF91CF9184
S11305801F910F91FF90EF900895CF93DF93C0E6F2
S1130590D6E090E29E838E6A0E94EC01809344062A
S11305A080E18E838D838FE493EC0197F1F700C093
S11305B00000DF91CF910895DF92EF92FF920F93A5
S11305C01F93CF93DF93D82E062FC0E6D6E080E2A8
S11305D08E8385E10E94EC010F2EF0E4EF2EF6E00D
S11305E0FF2EF02DF701848310E11E831D838D2DD2
S11305F00E94EC01F70184831E831D83802F0E94D7
S1130600EC01F70184831E831D83DF91CF911F9139
S11306100F91FF90EF90DF900895DF92EF92FF9299
S11306200F931F93CF93DF93D82E062FC0E6D6E007
S113063080E28E8385E70E94EC010F2EF0E4EF2E1A
S1130640F6E0FF2EF02DF701848310E11E831D8355
S113065084E08D0D0E94EC01F70184831E831D83C9
S113066084E0800F0E94EC01F70184831E831D83C4
S1130670DF91CF911F910F91FF90EF90DF9008953C
S1130680AF92BF92CF92DF92EF92FF920F931F939C
S1130690CF93DF93A82EB62EC42ED22EC0E6D6E07A
S11306A080E28E8384E20E94EC010F2EF0E4EF2EB0
S11306B0F6E0FF2EF02DF701848310E11E831D83E5
S11306C08A2D0E94EC01F70184831E831D838B2DE8
S11306D00E94EC01F70184831E831D838C2D0E94EC
S11306E0EC01F70184831E831D838D2D0E94EC0190
S11306F0F70184831E831D83802F0E94EC01F70180
S113070084831E831D83F5E8FA95F1F70000DF91D9
S1130710CF911F910F91FF90EF90DF90CF90BF90FA
S1130720AF9008951F920F920FB60F921124BF92AB
S1130730CF92DF92EF92FF920F931F932F933F93E9
S11307404F935F936F937F938F939F93AF93BF93D5
S1130750CF93DF93EF93FF9381E080934C0804E100
S113076012E2D80112964D915C9113979A01ADEC67
S1130770BCEC0E94D9079695879596958795969592
S113078087959C01220F331F880F991F880F991F8B
S1130790880F991F820F931FFA01E81BF90BCF01F1
S11307A09F93EF939A010E94D90796958795969502
S11307B08795969587959F938F930F2EFFEDCF2E58
S11307C0F1E2DF2EF02DDF92CF92CEEFD1E2DF9374
S11307D0CF930E94F9072EEE40E069E0CE010E941B
S11307E0BA00D80114964D915C911597FA01F695CB
S11307F0E795F695E7959F01ABE7B4E10E94D90729
S1130800969587950F2EF4E6BF2EF02DB89E900195
S1130810B99E300D1124421B530B5F934F939F01DC
S11308200E94D907969587959F938F930F2EF6EE86
S1130830EF2EF1E2FF2EF02DFF92EF92DF93CF9394
S11308400E94F9072EEE4AE069E0CE010E94BA0048
S1130850D80116964D915C9117979A01ADECBCECBA
S11308600E94D9079695879596958795969587952D
S11308709C01220F331F880F991F880F991F880F1F
S1130880991F820F931FFA01E81BF90BCF019F9365
S1130890EF939A010E94D907969587959695879527
S11308A0969587959F938F93DF92CF92DF93CF9303
S11308B00E94F9072EEE40E061E3CE010E94BA00E7
S11308C0D80118964D915C911997FA01F695E79520
S11308D0F695E7959F01ABE7B4E10E94D907969599
S11308E08795B89E9001B99E300D1124421B530B7D
S11308F05F934F939F010E94D907969587959F9385
S11309008F93FF92EF92DF93CF930E94F9072DB755
S11309103EB7205E3F4F2DBF3EBF2EEE4AE061E35F
S1130920CE010E94BA00D80116962D913C911797DA
S113093018960D90BC91A02D0E94D9079B01AC0183
S1130940A8EEB3E00E94E807D8011296ED91FC915D
S1130950139714964D915C911597E49F9001E59F30
S1130960300DF49F300D112440E050E00E94B70791
S113097069017A01ADECBCEC0E94D9079695879584
S113098096958795969587959C01220F331F880F1E
S1130990991F880F991F880F991F820F931FF601C3
S11309A0E81BF90BCF019F93EF9396010E94D9079F
S11309B09695879596958795969587959F938F930A
S11309C08FEE91E29F938F93DF93CF930E94F90769
S11309D02EEE44E160E2CE010E94BA008DB79EB7CC
S11309E008968DBF9EBFFF91EF91DF91CF91BF918C
S11309F0AF919F918F917F916F915F914F913F91B3
S1130A002F911F910F91FF90EF90DF90CF90BF90A7
S1130A100F900FBE0F901F9018951F920F920FB654
S1130A200F9211242F933F934F935F936F937F9370
S1130A308F939F93AF93BF93EF93FF9381E0809342
S1130A404C0984E192E20E945D0184E192E20E94F9
S1130A50760180E480930706FF91EF91BF91AF91F7
S1130A609F918F917F916F915F914F913F912F91C2
S1130A700F900FBE0F901F9018951F920F920FB6F4
S1130A800F9211242F933F934F935F936F937F9310
S1130A908F939F93AF93BF93EF93FF9384E192E27D
S1130AA00E947901FF91EF91BF91AF919F918F9136
S1130AB07F916F915F914F913F912F910F900FBE56
S1130AC00F901F901895CF93DF93CDB7DEB728977B
S1130AD0CDBFDEBF80E4809301060E948B000EEF41
S1130AE011E285E599E6F801808391830F2EFDE3F9
S1130AF0EF2EF12CF02DE282F38226E640E060E056
S1130B00C8010E94BA0089E499E6F80180839183C0
S1130B10E282F38226E64AE060E0C8010E94BA005D
S1130B2085E59FE6F80180839183E282F38226E6DD
S1130B3040E068E2C8010E94BA0089E49FE6F80137
S1130B4080839183E282F38226E64AE068E2C80168
S1130B500E94BA0085E0E8EFF1E2D80101900D921D
S1130B608A95E1F726E644E164E1C8010E94BA00EF
S1130B7080E498E089839A8384EF91E08B839C835B
S1130B8080E499E08D839E8384E690E08F83988748
S1130B9061E0CE0101960E94070662E0CE0105964F
S1130BA00E94070684E192E20E94510187E080934B
S1130BB0A2007894CE0105960E941506CE010196F6
S1130BC00E941506FFCF1092152208958FE080939E
S1130BD00206E0E0F2E092E0948381E08083918376
S1130BE01282868393E092A380A38AE484A713826B
S1130BF00895609321020895E0E0F2E0808184602A
S1130C008083089580912402909125020895FC0127
S1130C10A081B1818281938196968D939C939797BD
S1130C200190F081E02D66830895DC01ED91FC9143
S1130C30119727E02083ED91FC9181E0848708954A
S1130C405058BB27AA270E9438060C9410070E940C
S1130C50020738F00E94090720F039F49F3F19F485
S1130C6026F40C94FF060EF4E095E7FB0C94F906C9
S1130C70E92F0E94210758F3BA1762077307840704
S1130C80950720F079F4A6F50C9443070EF4E0954B
S1130C900B2EBA2FA02D0B01B90190010C01CA0132
S1130CA0A0011124FF27591B99F0593F50F4503EDD
S1130CB068F11A16F040A22F232F342F4427585FCF
S1130CC0F3CF469537952795A795F0405395C9F7E7
S1130CD07EF41F16BA0B620B730B840BBAF091509F
S1130CE0A1F0FF0FBB1F661F771F881FC2F70EC03E
S1130CF0BA0F621F731F841F48F487957795679511
S1130D00B795F7959E3F08F0B0CF9395880F08F0FC
S1130D109927EE0F9795879508950E94290788F0E3
S1130D209F5798F0B92F9927B751B0F0E1F0660FAB
S1130D30771F881F991F1AF0BA95C9F714C0B130EC
S1130D4091F00E944307B1E008950C944307672F84
S1130D50782F8827B85F39F0B93FCCF3869577951B
S1130D606795B395D9F73EF4909580957095619504
S1130D707F4F8F4F9F4F0895E89409C097FB3EF42F
S1130D8090958095709561957F4F8F4F9F4F9923D4
S1130D90A9F0F92F96E9BB279395F6958795779552
S1130DA06795B795F111F8CFFAF4BB0F11F460FF12
S1130DB01BC06F5F7F4F8F4F9F4F16C0882311F06A
S1130DC096E911C0772321F09EE8872F762F05C07E
S1130DD0662371F096E8862F70E060E02AF09A9519
S1130DE0660F771F881FDAF7880F9695879597F90E
S1130DF0089597F99F6780E870E060E008959FEF99
S1130E0080EC089500240A9416161706180609069D
S1130E10089500240A94121613061406050608956C
S1130E20092E0394000C11F4882352F0BB0F40F4F4
S1130E30BF2B11F460FF04C06F5F7F4F8F4F9F4F34
S1130E40089557FD9058440F551F59F05F3F71F0B6
S1130E504795880F97FB991F61F09F3F79F087951D
S1130E600895121613061406551FF2CF4695F1DFA6
S1130E7008C0161617061806991FF1CF8695710536
S1130E80610508940895E894BB2766277727CB016A
S1130E9097F908950E945D070C9410070E940207B9
S1130EA038F00E94090720F0952311F00C94F906FC
S1130EB00C94FF0611240C9444070E94210770F33C
S1130EC0959FC1F3950F50E0551F629FF001729FEB
S1130ED0BB27F00DB11D639FAA27F00DB11DAA1FFA
S1130EE0649F6627B00DA11D661F829F2227B00D47
S1130EF0A11D621F739FB00DA11D621F839FA00DD2
S1130F00611D221F749F3327A00D611D231F849F21
S1130F10600D211D822F762F6A2F11249F57504078
S1130F209AF0F1F088234AF0EE0FFF1FBB1F661FF3
S1130F30771F881F91505040A9F79E3F510580F0BC
S1130F400C94F9060C9444075F3FE4F3983ED4F301
S1130F50869577956795B795F795E7959F5FC1F760
S1130F60FE2B880F911D9695879597F90895A1E218
S1130F701A2EAA1BBB1BFD010DC0AA1FBB1FEE1F0F
S1130F80FF1FA217B307E407F50720F0A21BB30B5A
S1130F90E40BF50B661F771F881F991F1A9469F7D6
S1130FA060957095809590959B01AC01BD01CF0132
S1130FB00895A29FB001B39FC001A39F700D811D2E
S1130FC01124911DB29F700D811D1124911D08954E
S1130FD00E94D907A59F900DB49F900DA49F800DEA
S1130FE0911D11240895EE0FFF1F0590F491E02D3B
S1130FF00994AEE0B0E0EFEFF7E00C94BA0A0D8983
S11310001E8986E08C8309831A838FEF9FE78D8383
S11310109E83AE01475E5F4F6F89788DCE01019646
S11310200E941B08EF81F885E00FF11F10822E96B5
S1131030E4E00C94D30AABE0B0E0E1E2F8E00C9415
S1131040AC0A6C017B018A01FC0116821782838140
S113105081FFCCC1CE0101963C01F6019381F701D9
S113106093FD859193FF81917F01882309F4BAC18F
S1131070853239F493FD859193FF81917F01853207
S113108029F4B60190E00E94120AE7CF912C212C9A
S1131090312CFFE1F315D8F08B3279F038F480323B
S11310A079F08332A1F4232D20611DC08D3261F0CB
S11310B0803369F4232D216016C0832D8260382E7D
S11310C0E32DE4603E2E2AC0F32DF8601DC037FCEA
S11310D02DC020ED280F2A3040F08E32B9F436FCB2
S11310E081C1232D2064322E19C036FE06C08AE049
S11310F0989E200D1124922E11C0EAE02E9E200D00
S11311001124222EF32DF0623F2E08C08C3621F4D8
S1131110832D8068382E02C0883641F4F70193FD90
S1131120859193FF81917F018111B3CF982F9F7D8A
S11311309554933028F40C5F1F4F9FE399830DC09F
S1131140833631F0833771F0833509F059C021C0FB
S1131150F801808189830E5F1F4F88248394912C2A
S1131160530113C02801F2E04F0E511CF801A08076
S1131170B18036FE03C0692D70E002C06FEF7FEFCF
S1131180C5010E94070A4C018201F32DFF773F2E0F
S113119016C0280122E0420E511CF801A080B18043
S11311A036FE03C0692D70E002C06FEF7FEFC5010A
S11311B00E94FC094C01F32DF0683F2E820133FCA0
S11311C01BC0822D90E088169906B0F4B60180E227
S11311D090E00E94120A2A94F4CFF50137FC85911D
S11311E037FE81915F01B60190E00E94120A21103E
S11311F02A9421E0821A91088114910471F7E8C0BD
S1131200843611F0893641F5F80137FE07C0608154
S11312107181828193810C5F1F4F08C0608171814D
S1131220072E000C880B990B0E5F1F4FF32DFF76D2
S11312303F2E97FF09C090958095709561957F4FDB
S11312408F4F9F4FF0683F2E2AE030E0A3010E94A9
S11312504E0A882E861845C0853731F4232D2F7EFB
S1131260B22E2AE030E025C0932D997FB92E8F3617
S1131270C1F018F4883579F0B5C0803719F0883793
S113128021F0B0C0E92FE061BE2EB4FE0DC0FB2DED
S1131290F460BF2E09C034FE0AC0292F2660B22E86
S11312A006C028E030E005C020E130E002C020E1C3
S11312B032E0F801B7FE07C06081718182819381B9
S11312C00C5F1F4F06C06081718180E090E00E5F6B
S11312D01F4FA3010E944E0A882E8618FB2DFF770C
S11312E03F2E36FE0DC0232D2E7FA22E891458F4D6
S11312F034FE0BC032FC09C0832D8E7EA82E05C09F
S1131300B82CA32C03C0B82C01C0B92CA4FE0FC068
S1131310FE01E80DF11D8081803321F49A2D997E20
S1131320A92E09C0A2FE06C0B394B39404C08A2DAA
S1131330867809F0B394A3FC11C0A0FE06C0B214D1
S113134088F4280C922C9B180EC0B21460F4B601D9
S113135080E290E00E94120AB394F7CFB21418F41A
S11313602B1802C0982C212CA4FE10C0B60180E3D7
S113137090E00E94120AA2FE17C0A1FC03C088E7F5
S113138090E002C088E590E0B6010CC08A2D867812
S113139059F0A1FE02C08BE201C080E2A7FC8DE2FD
S11313A0B60190E00E94120A891438F4B60180E371
S11313B090E00E94120A9A94F7CF8A94F301E80D00
S11313C0F11D8081B60190E00E94120A8110F5CFD0
S11313D0222009F442CEB60180E290E00E94120A73
S11313E02A94F6CFF6018681978102C08FEF9FEF92
S11313F02B96E2E10C94C50AFC0105906150704003
S11314000110D8F7809590958E0F9F1F0895FC01C9
S11314106150704001900110D8F7809590958E0F1F
S11314209F1F08950F931F93CF93DF93FB01238195
S113143021FD03C08FEF9FEF2CC022FF16C0468111
S11314405781248135814217530744F4A081B18127
S11314509D012F5F3F4F208331838C9326813781F9
S11314602F5F3F4F2683378314C08B01EC01FB01B0
S11314700084F185E02D0995892BE1F6D8011696B3
S11314808D919C911797019616968D939C9317971F
S1131490CE01DF91CF911F910F910895FA01AA27F0
S11314A0283051F1203181F1E8946F936E7F6E5FA3
S11314B07F4F8F4F9F4FAF4FB1E03ED0B4E03CD051
S11314C0670F781F891F9A1FA11D680F791F8A1F34
S11314D0911DA11D6A0F711D811D911DA11D20D09B
S11314E009F468943F912AE0269F11243019305D55
S11314F03193DEF6CF010895462F4770405D419346
S1131500B3E00FD0C9F7F6CF462F4F70405D4A3392
S113151018F0495D31FD4052419302D0A9F7EACF5A
S1131520B4E0A6959795879577956795BA95C9F789
S113153000976105710508959B01AC010A2E06947C
S11315405795479537952795BA95C9F7620F731F35
S1131550841F951FA01D08952F923F924F925F9272
S11315606F927F928F929F92AF92BF92CF92DF92AF
S1131570EF92FF920F931F93CF93DF93CDB7DEB714
S1131580CA1BDB0BCDBFDEBF09942A883988488883
S11315905F846E847D848C849B84AA84B984C8848B
S11315A0DF80EE80FD800C811B81AA81B981CE0F82
S11115B0D11DCDBFDEBFED010895F894FFCF2D
S11315BE000000000000005F0000000300030014A0
S11315CE3E143E14242A7F2A124333086661364998
S11315DE5522500005030000001C22410000412248
S11315EE1C0014083E081408083E08080050300079
S11315FE00080808080800606000002010080402B3
S113160E3E5149453E0004027F0042615149462243
S113161E414949361814127F1027454545393E492C
S113162E4949320101710907364949493626494962
S113163E493E00363600000056360000081422419A
S113164E0014141414140041221408020151090642
S113165E3E4159555E7E0909097E7F494949363E08
S113166E414141227F4141413E7F494949417F09E0
S113167E0909013E4141493A7F0808087F00417F2C
S113168E4100304040403F7F081422417F4040409B
S113169E407F020C027F7F0204087F3E4141413E9F
S11316AE7F090909061E2121215E7F090909762673
S11316BE4949493201017F01013F4040403F1F200B
S11316CE40201F7F2010207F41221C2241070870DA
S11316DE08076151494543007F4100000204081088
S11316EE200000417F0004020102044040404040BB
S11316FE000609090620545454787F44444438386B
S113170E44444444384444447F38545454180404E0
S113171E7E0505085454543C7F0804047800447D27
S113172E40002040443D007F1028440000417F408B
S113173E007C047804787C080404783844444438E3
S113174E7C14141408081414147C007C0804044833
S113175E5454542004043F44443C4040207C1C20F8
S113176E40201C3C4030403C44281028440C50502F
S113177E503C4464544C44000836414100007F0000
S113178E0041413608000201020402000810182527
S113179E752E2575560025752E253032754100257A
S11117AE752E2575252520004574613D00002B
S9030000FC
